{
  "_format": "hh3-artifact-1",
  "contractName": "TrendBet",
  "sourceName": "contracts/TrendBet.sol",
  "abi": [
    {
      "inputs": [],
      "stateMutability": "nonpayable",
      "type": "constructor"
    },
    {
      "anonymous": false,
      "inputs": [
        {
          "indexed": true,
          "internalType": "uint256",
          "name": "marketId",
          "type": "uint256"
        },
        {
          "indexed": false,
          "internalType": "string",
          "name": "question",
          "type": "string"
        },
        {
          "indexed": false,
          "internalType": "uint256",
          "name": "deadline",
          "type": "uint256"
        }
      ],
      "name": "MarketCreated",
      "type": "event"
    },
    {
      "anonymous": false,
      "inputs": [
        {
          "indexed": true,
          "internalType": "uint256",
          "name": "marketId",
          "type": "uint256"
        },
        {
          "indexed": false,
          "internalType": "uint8",
          "name": "winningOption",
          "type": "uint8"
        }
      ],
      "name": "MarketResolved",
      "type": "event"
    },
    {
      "anonymous": false,
      "inputs": [
        {
          "indexed": true,
          "internalType": "uint256",
          "name": "marketId",
          "type": "uint256"
        },
        {
          "indexed": true,
          "internalType": "address",
          "name": "user",
          "type": "address"
        },
        {
          "indexed": false,
          "internalType": "uint8",
          "name": "option",
          "type": "uint8"
        },
        {
          "indexed": false,
          "internalType": "uint256",
          "name": "amount",
          "type": "uint256"
        }
      ],
      "name": "Staked",
      "type": "event"
    },
    {
      "anonymous": false,
      "inputs": [
        {
          "indexed": true,
          "internalType": "uint256",
          "name": "marketId",
          "type": "uint256"
        },
        {
          "indexed": true,
          "internalType": "address",
          "name": "user",
          "type": "address"
        },
        {
          "indexed": false,
          "internalType": "uint256",
          "name": "amount",
          "type": "uint256"
        }
      ],
      "name": "WinningsClaimed",
      "type": "event"
    },
    {
      "inputs": [
        {
          "internalType": "uint256",
          "name": "_marketId",
          "type": "uint256"
        }
      ],
      "name": "claimWinnings",
      "outputs": [],
      "stateMutability": "nonpayable",
      "type": "function"
    },
    {
      "inputs": [
        {
          "internalType": "string",
          "name": "_question",
          "type": "string"
        },
        {
          "internalType": "string",
          "name": "_optionA",
          "type": "string"
        },
        {
          "internalType": "string",
          "name": "_optionB",
          "type": "string"
        },
        {
          "internalType": "uint256",
          "name": "_deadline",
          "type": "uint256"
        }
      ],
      "name": "createMarket",
      "outputs": [],
      "stateMutability": "nonpayable",
      "type": "function"
    },
    {
      "inputs": [
        {
          "internalType": "uint256",
          "name": "",
          "type": "uint256"
        },
        {
          "internalType": "address",
          "name": "",
          "type": "address"
        }
      ],
      "name": "hasClaimed",
      "outputs": [
        {
          "internalType": "bool",
          "name": "",
          "type": "bool"
        }
      ],
      "stateMutability": "view",
      "type": "function"
    },
    {
      "inputs": [],
      "name": "marketCount",
      "outputs": [
        {
          "internalType": "uint256",
          "name": "",
          "type": "uint256"
        }
      ],
      "stateMutability": "view",
      "type": "function"
    },
    {
      "inputs": [
        {
          "internalType": "uint256",
          "name": "",
          "type": "uint256"
        }
      ],
      "name": "markets",
      "outputs": [
        {
          "internalType": "string",
          "name": "question",
          "type": "string"
        },
        {
          "internalType": "string",
          "name": "optionA",
          "type": "string"
        },
        {
          "internalType": "string",
          "name": "optionB",
          "type": "string"
        },
        {
          "internalType": "uint256",
          "name": "deadline",
          "type": "uint256"
        },
        {
          "internalType": "uint256",
          "name": "totalPool",
          "type": "uint256"
        },
        {
          "internalType": "uint256",
          "name": "totalA",
          "type": "uint256"
        },
        {
          "internalType": "uint256",
          "name": "totalB",
          "type": "uint256"
        },
        {
          "internalType": "bool",
          "name": "resolved",
          "type": "bool"
        },
        {
          "internalType": "uint8",
          "name": "winningOption",
          "type": "uint8"
        }
      ],
      "stateMutability": "view",
      "type": "function"
    },
    {
      "inputs": [],
      "name": "owner",
      "outputs": [
        {
          "internalType": "address",
          "name": "",
          "type": "address"
        }
      ],
      "stateMutability": "view",
      "type": "function"
    },
    {
      "inputs": [],
      "name": "protocolFeePercent",
      "outputs": [
        {
          "internalType": "uint256",
          "name": "",
          "type": "uint256"
        }
      ],
      "stateMutability": "view",
      "type": "function"
    },
    {
      "inputs": [
        {
          "internalType": "uint256",
          "name": "_marketId",
          "type": "uint256"
        },
        {
          "internalType": "uint8",
          "name": "_winningOption",
          "type": "uint8"
        }
      ],
      "name": "resolveMarket",
      "outputs": [],
      "stateMutability": "nonpayable",
      "type": "function"
    },
    {
      "inputs": [
        {
          "internalType": "uint256",
          "name": "_marketId",
          "type": "uint256"
        },
        {
          "internalType": "uint8",
          "name": "_option",
          "type": "uint8"
        }
      ],
      "name": "stake",
      "outputs": [],
      "stateMutability": "payable",
      "type": "function"
    },
    {
      "inputs": [],
      "name": "totalProtocolFees",
      "outputs": [
        {
          "internalType": "uint256",
          "name": "",
          "type": "uint256"
        }
      ],
      "stateMutability": "view",
      "type": "function"
    },
    {
      "inputs": [
        {
          "internalType": "uint256",
          "name": "",
          "type": "uint256"
        },
        {
          "internalType": "address",
          "name": "",
          "type": "address"
        },
        {
          "internalType": "uint8",
          "name": "",
          "type": "uint8"
        }
      ],
      "name": "userStakes",
      "outputs": [
        {
          "internalType": "uint256",
          "name": "",
          "type": "uint256"
        }
      ],
      "stateMutability": "view",
      "type": "function"
    },
    {
      "inputs": [],
      "name": "withdrawFees",
      "outputs": [],
      "stateMutability": "nonpayable",
      "type": "function"
    },
    {
      "stateMutability": "payable",
      "type": "receive"
    }
  ],
  "bytecode": "0x608060405260026001553480156013575f5ffd5b505f80546001600160a01b03191633179055611246806100325f395ff3fe6080604052600436106100a8575f3560e01c8063b1283e7711610062578063b1283e771461019e578063d6e6eb9f146101d2578063df55406e146101f5578063ec97908214610214578063f526e39a14610229578063f80f8deb1461023e575f5ffd5b806310087fb1146100b3578063476343ee146100c8578063677bd9ff146100dc57806376e00406146100fb578063873f6f9e1461011a5780638da5cb5b14610168575f5ffd5b366100af57005b5f5ffd5b6100c66100c1366004610d63565b61027a565b005b3480156100d3575f5ffd5b506100c66104b7565b3480156100e7575f5ffd5b506100c66100f6366004610d8d565b610581565b348015610106575f5ffd5b506100c6610115366004610e43565b610800565b348015610125575f5ffd5b50610153610134366004610eef565b600660209081525f928352604080842090915290825290205460ff1681565b60405190151581526020015b60405180910390f35b348015610173575f5ffd5b505f54610186906001600160a01b031681565b6040516001600160a01b03909116815260200161015f565b3480156101a9575f5ffd5b506101bd6101b8366004610d8d565b6109bd565b60405161015f99989796959493929190610f3e565b3480156101dd575f5ffd5b506101e760015481565b60405190815260200161015f565b348015610200575f5ffd5b506100c661020f366004610d63565b610b9b565b34801561021f575f5ffd5b506101e760035481565b348015610234575f5ffd5b506101e760025481565b348015610249575f5ffd5b506101e7610258366004610fb2565b600560209081525f938452604080852082529284528284209052825290205481565b5f828152600460205260409020600781015460ff16156102db5760405162461bcd60e51b815260206004820152601760248201527613585c9ad95d08185b1c9958591e481c995cdbdb1d9959604a1b60448201526064015b60405180910390fd5b806003015442106103275760405162461bcd60e51b815260206004820152601660248201527513585c9ad95d08191958591b1a5b99481c185cdcd95960521b60448201526064016102d2565b66038d7ea4c6800034101561037e5760405162461bcd60e51b815260206004820152601a60248201527f4d696e696d756d207374616b6520697320302e3030312045544800000000000060448201526064016102d2565b8160ff166001148061039357508160ff166002145b6103df5760405162461bcd60e51b815260206004820152601760248201527f496e76616c6964206f7074696f6e202831206f7220322900000000000000000060448201526064016102d2565b5f838152600560209081526040808320338452825280832060ff8616845290915281208054349290610412908490610fff565b9250508190555034816004015f82825461042c9190610fff565b909155505060ff821660010361045a5734816005015f82825461044f9190610fff565b909155506104739050565b34816006015f82825461046d9190610fff565b90915550505b6040805160ff84168152346020820152339185917f0a867db1cb5dc249fadc9a5e0ea86179b9d19744911fc31e36608c19eecff7b5910160405180910390a3505050565b5f546001600160a01b031633146104e05760405162461bcd60e51b81526004016102d290611018565b600280545f9182905581546040519192916001600160a01b039091169083908381818185875af1925050503d805f8114610535576040519150601f19603f3d011682016040523d82523d5f602084013e61053a565b606091505b505090508061057d5760405162461bcd60e51b815260206004820152600f60248201526e151c985b9cd9995c8819985a5b1959608a1b60448201526064016102d2565b5050565b5f818152600460205260409020600781015460ff166105d85760405162461bcd60e51b815260206004820152601360248201527213585c9ad95d081b9bdd081c995cdbdb1d9959606a1b60448201526064016102d2565b5f82815260066020908152604080832033845290915290205460ff16156106415760405162461bcd60e51b815260206004820152601860248201527f57696e6e696e677320616c726561647920636c61696d6564000000000000000060448201526064016102d2565b60078101545f838152600560209081526040808320338452825280832061010090940460ff1680845293909152902054806106b15760405162461bcd60e51b815260206004820152601060248201526f4e6f2077696e6e696e67207374616b6560801b60448201526064016102d2565b5f8260ff166001146106c75783600601546106cd565b83600501545b90505f606460015486600401546106e4919061104f565b6106ee9190611066565b85600401546106fd9190611085565b90505f8261070b838661104f565b6107159190611066565b5f888152600660209081526040808320338085529252808320805460ff1916600117905551929350909183908381818185875af1925050503d805f8114610777576040519150601f19603f3d011682016040523d82523d5f602084013e61077c565b606091505b50509050806107bf5760405162461bcd60e51b815260206004820152600f60248201526e151c985b9cd9995c8819985a5b1959608a1b60448201526064016102d2565b604051828152339089907f5380cf6fe903b40c6d5a9e0dfbca2f3a423f0a21520b4d5947ed5169bdba946d9060200160405180910390a35050505050505050565b5f546001600160a01b031633146108295760405162461bcd60e51b81526004016102d290611018565b4281116108785760405162461bcd60e51b815260206004820152601e60248201527f446561646c696e65206d75737420626520696e2074686520667574757265000060448201526064016102d2565b60038054905f61088783611098565b909155505060408051610120810182528581526020808201869052818301859052606082018490525f6080830181905260a0830181905260c0830181905260e0830181905261010083018190526003548152600490915291909120815181906108f09082611134565b50602082015160018201906109059082611134565b506040820151600282019061091a9082611134565b5060608201516003828101919091556080830151600483015560a0830151600583015560c0830151600683015560e0830151600790920180546101009485015161ffff1990911693151561ff0019169390931760ff90931690930291909117909155546040517f2d1e9ad45dbe8e898e0374deebf2a661b2ae7c1855d2a29507d584c35d287c75906109af90879085906111ef565b60405180910390a250505050565b60046020525f90815260409020805481906109d7906110b0565b80601f0160208091040260200160405190810160405280929190818152602001828054610a03906110b0565b8015610a4e5780601f10610a2557610100808354040283529160200191610a4e565b820191905f5260205f20905b815481529060010190602001808311610a3157829003601f168201915b505050505090806001018054610a63906110b0565b80601f0160208091040260200160405190810160405280929190818152602001828054610a8f906110b0565b8015610ada5780601f10610ab157610100808354040283529160200191610ada565b820191905f5260205f20905b815481529060010190602001808311610abd57829003601f168201915b505050505090806002018054610aef906110b0565b80601f0160208091040260200160405190810160405280929190818152602001828054610b1b906110b0565b8015610b665780601f10610b3d57610100808354040283529160200191610b66565b820191905f5260205f20905b815481529060010190602001808311610b4957829003601f168201915b505050600384015460048501546005860154600687015460079097015495969295919450925060ff8082169161010090041689565b5f546001600160a01b03163314610bc45760405162461bcd60e51b81526004016102d290611018565b5f828152600460205260409020600781015460ff1615610c205760405162461bcd60e51b815260206004820152601760248201527613585c9ad95d08185b1c9958591e481c995cdbdb1d9959604a1b60448201526064016102d2565b8060030154421015610c6b5760405162461bcd60e51b8152602060048201526014602482015273111958591b1a5b99481b9bdd081c995858da195960621b60448201526064016102d2565b8160ff1660011480610c8057508160ff166002145b610cc55760405162461bcd60e51b815260206004820152601660248201527524b73b30b634b2103bb4b73734b7339037b83a34b7b760511b60448201526064016102d2565b600781018054600161ffff1990911661010060ff8616021781179091555460048201545f91606491610cf7919061104f565b610d019190611066565b90508060025f828254610d149190610fff565b909155505060405160ff8416815284907f739f283563fb51ab6b89ee95d937b2e63a6cfcb83c385dbebb629f9d97bd43e6906020016109af565b803560ff81168114610d5e575f5ffd5b919050565b5f5f60408385031215610d74575f5ffd5b82359150610d8460208401610d4e565b90509250929050565b5f60208284031215610d9d575f5ffd5b5035919050565b634e487b7160e01b5f52604160045260245ffd5b5f82601f830112610dc7575f5ffd5b813567ffffffffffffffff811115610de157610de1610da4565b604051601f8201601f19908116603f0116810167ffffffffffffffff81118282101715610e1057610e10610da4565b604052818152838201602001851015610e27575f5ffd5b816020850160208301375f918101602001919091529392505050565b5f5f5f5f60808587031215610e56575f5ffd5b843567ffffffffffffffff811115610e6c575f5ffd5b610e7887828801610db8565b945050602085013567ffffffffffffffff811115610e94575f5ffd5b610ea087828801610db8565b935050604085013567ffffffffffffffff811115610ebc575f5ffd5b610ec887828801610db8565b949793965093946060013593505050565b80356001600160a01b0381168114610d5e575f5ffd5b5f5f60408385031215610f00575f5ffd5b82359150610d8460208401610ed9565b5f81518084528060208401602086015e5f602082860101526020601f19601f83011685010191505092915050565b61012081525f610f5261012083018c610f10565b8281036020840152610f64818c610f10565b90508281036040840152610f78818b610f10565b60608401999099525050608081019590955260a085019390935260c0840191909152151560e083015260ff16610100909101529392505050565b5f5f5f60608486031215610fc4575f5ffd5b83359250610fd460208501610ed9565b9150610fe260408501610d4e565b90509250925092565b634e487b7160e01b5f52601160045260245ffd5b8082018082111561101257611012610feb565b92915050565b60208082526018908201527f4f6e6c79206f776e65722063616e2063616c6c20746869730000000000000000604082015260600190565b808202811582820484141761101257611012610feb565b5f8261108057634e487b7160e01b5f52601260045260245ffd5b500490565b8181038181111561101257611012610feb565b5f600182016110a9576110a9610feb565b5060010190565b600181811c908216806110c457607f821691505b6020821081036110e257634e487b7160e01b5f52602260045260245ffd5b50919050565b601f82111561112f57805f5260205f20601f840160051c8101602085101561110d5750805b601f840160051c820191505b8181101561112c575f8155600101611119565b50505b505050565b815167ffffffffffffffff81111561114e5761114e610da4565b6111628161115c84546110b0565b846110e8565b6020601f821160018114611194575f831561117d5750848201515b5f19600385901b1c1916600184901b17845561112c565b5f84815260208120601f198516915b828110156111c357878501518255602094850194600190920191016111a3565b50848210156111e057868401515f19600387901b60f8161c191681555b50505050600190811b01905550565b604081525f6112016040830185610f10565b9050826020830152939250505056fea26469706673582212200e07184cb4deae9e0301b7fcb844a26d318fe20126a6de8740538a1e3ef9925264736f6c634300081c0033",
  "linkReferences": {},
  "deployedLinkReferences": {},
  "immutableReferences": {},
  "inputSourceName": "project/contracts/TrendBet.sol",
  "buildInfoId": "solc-0_8_28-106d001aa3ea71537d4453bcbc85b15faef3e575"
}